:100000000C94CD000C94EC000C94EC000C94EC00DF
:100010000C94EC000C94EC000C94EC000C94EC00B0
:100020000C94EC000C94EC000C94EC000C94EC00A0
:100030000C94EC000C94EC000C94EC000C94EC0090
:100040000C94EC000C94EC000C94EC000C94EC0080
:100050000C94EC000C94EC000C94EC000C94EC0070
:100060000C94EC000C94EC000C94EC000C94EC0060
:100070000C94EC000C94EC000C9499010C94EC00A2
:100080000C94EC000C94EC000C94EC006E616E008F
:10009000696E660000407A10F35A00A0724E18098B
:1000A0000010A5D4E80000E87648170000E40B54DF
:1000B000020000CA9A3B000000E1F50500008096AE
:1000C0009800000040420F000000A08601000000E0
:1000D000102700000000E80300000000640000009A
:1000E00000000A00000000000100000000002C7663
:1000F000D888DC674F0823DFC1DFAE59E1B1B7967E
:10010000E5E3E453C63AE651997696E8E6C28426DA
:10011000EB898C9B62ED407C6FFCEFBC9C9F40F2B6
:10012000BAA56FA5F490055A2AF75C936B6CF96732
:100130006DC11BFCE0E40D47FEF520E6B500D0EDF7
:10014000902E0300943577050080841E080000205F
:100150004E0A000000C80C333333330F986E1283FD
:100160001141EF8D2114893BE65516CFFEE6DB18D1
:10017000D1844B381BF77C1D901DA4BBE424203296
:1001800084725E228100C9F124ECA1E53D276364FD
:10019000696E6F70737578585B0011241FBECFEFC6
:1001A000D0E1DEBFCDBF12E0A0E0B1E0E2E9F9E2CC
:1001B00000E00BBF02C007900D92AC31B107D9F738
:1001C00012E0ACE1B2E001C01D92A43DB107E1F73D
:1001D0000E942C010C94C7140C94000010929800FB
:1001E0008CE08093990088E980939A0086E0809360
:1001F0009D000895BC9A83B7886483BF83B78062EB
:1002000083BF83B7816083BFBD9A8FB580688FBD80
:100210008FB581608FBD8EB588608EBD8EB58160D3
:100220008EBDBE9A8FB580628FBD8FB581608FBD48
:100230008EB588608EBD8EB581608EBDBF9A8FB53C
:1002400088608FBD8FB581608FBD8EB588608EBD93
:100250008EB581608EBD08951F93CF93DF9314B741
:1002600014BE109298008CE08093990088E98093E6
:100270009A0086E080939D000E94FA002FE088E1BA
:1002800090E00FB6F894A89581BD0FBE21BD80E81F
:1002900081BF80E890E09BBD8ABD99BD88BD9093E9
:1002A00079008093780088EB9BE028EC30E0F9013E
:1002B0003197F1F70197D9F780E091E00E94380A71
:1002C00010FF03C08DE091E00CC011FF03C08EE170
:1002D00091E007C0112319F08FE291E002C081E4A0
:1002E00091E00E94380A789420E137E2C8ECD0E02F
:1002F00005C0CE010197F1F721503040211531059D
:10030000C1F780911E0290911F02019690931F02E7
:1003100080931E0280911E0290911F02CC9714F4CC
:10032000A89504C08DE491E00E94380A20E137E2EC
:10033000E0CF1F920F920FB60F920BB60F921124BF
:10034000EF92FF920F931F932F933F934F935F93DF
:100350006F937F938F939F93AF93BF93EF93FF938D
:10036000DF93CF93CDB7DEB7A897DEBFCDBFE091C7
:100370001C02F0911D0280919C0090E7E92E92E012
:10038000F92EEE0DFF1D808380911C0290911D02BD
:10039000019690931D0280931C02E0911C02F09143
:1003A0001D02E159FD4F8081882309F052C110924E
:1003B0001D0210921C02D7010D900020E9F78D015B
:1003C000015010400E191F09C70169E571E00E9434
:1003D00096100817190709F02EC10B33110509F003
:1003E0002AC110921F0210921E02A895EDB7FEB707
:1003F000BC970FB6F894FEBF0FBEEDBF3196ADB7F8
:10040000BEB71296FC92EE92119785E691E0938327
:100410008283CE01099695838483CE010B969783C0
:100420008683CE010D9691878087CE010F969387A4
:100430008287CE01419695878487CE014396978720
:100440008687CE014596918B808BCE014796938B04
:10045000828BCE014996958B848BCE014B96978BE0
:10046000868BCE014D96918F808FCE014F96938FC4
:10047000828FCE018196958F848FCE018396978F40
:10048000868FCE01859691A380A3CE01879693A3F4
:1004900082A3CE01019695A384A3CE01039697A3D0
:1004A00086A3CE01059691A780A7CE01079693A7B4
:1004B00082A70E94021189859A85EDB7FEB7BC9686
:1004C0000FB6F894FEBF0FBEEDBF97FF02C080E0ED
:1004D00090E02B853C85821793070CF4C9012D858C
:1004E0003E85821793070CF4C9012091A901309130
:1004F000AA014091AB015091AC016F8578898617B4
:1005000097070CF4CB0169817A8101E010E00E9429
:1005100075086093A9017093AA018093AB01909331
:10052000AC0189899A8997FF02C080E090E02B890D
:100530003C89821793070CF4C9012D893E898217E3
:1005400093070CF4C9012091AD013091AE014091A7
:10055000AF015091B0016F89788D861797070CF421
:10056000CB016B817C8102E010E00E9475086093F2
:10057000AD017093AE018093AF019093B001898D6E
:100580009A8D97FF02C080E090E02B8D3C8D821702
:1005900093070CF4C9012D8D3E8D821793070CF43F
:1005A000C9012091B1013091B2014091B301509144
:1005B000B4016F8D78A1861797070CF4CB016D817C
:1005C0007E8103E010E00E9475086093B101709392
:1005D000B2018093B3019093B40189A19AA197FFCE
:1005E00002C080E090E02BA13CA1821793070CF49D
:1005F000C9012DA13EA1821793070CF4C9012091D6
:10060000B5013091B6014091B7015091B8016FA189
:1006100078A5861797070CF4CB016F81788504E0E5
:1006200010E00E9475086093B5017093B601809345
:10063000B7019093B80184E6E0E7F2E0DF011D9294
:100640008A95E9F71092700210921D0210921C0216
:100650001AC080911C0290911D02CC97A4F084E6F0
:10066000F70111928A95E9F71092700210921D021B
:1006700010921C0280911E0290911F02019690938D
:100680001F0280931E02A896DEBFCDBFCF91DF91DF
:10069000FF91EF91BF91AF919F918F917F916F915A
:1006A0005F914F913F912F911F910F91FF90EF908C
:1006B0000F900BBE0F900FBE0F901F9018952F92AA
:1006C0003F924F925F926F927F928F929F92AF92E2
:1006D000BF92CF92DF92EF92FF920F931F93DF931F
:1006E000CF9300D000D0CDB7DEB749835A836B8358
:1006F0007C83AA2797FDA095BA2FBC01CD010E944B
:10070000910E1B012C0129813A814B815C810E9451
:10071000F50D60932C0270932D0280932E0290931E
:100720002F026091B9017091BA018091BB01909143
:10073000BC0120912C0230912D0240912E0250914B
:100740002F020E94450FA20191010E94450F7B01DB
:100750008C0160913002709131028091320290914F
:1007600033022091200230912102409122025091C7
:1007700023020E94D6099B01AC0160912002709176
:10078000210280912202909123020E94F50D609334
:1007900020027093210280932202909323026091A1
:1007A000BD017091BE018091BF019091C001209167
:1007B0002C0230912D0240912E0250912F020E9466
:1007C000450F29813A814B815C810E94450F7B0155
:1007D0008C016091300270913102809132029091CF
:1007E000330220912402309125024091260250913B
:1007F00027020E94D6099B01AC01609124027091EE
:10080000250280912602909127020E94F60D6093A6
:100810002402709325028093260290932702609110
:10082000C1017091C2018091C3019091C4012091D6
:100830002C0230912D0240912E0250912F020E94E5
:10084000450F7B018C0160913002709131028091E3
:100850003202909133022091280230912902409176
:100860002A0250912B020E94D6099B01AC01609193
:1008700028027091290280912A0290912B020E94F5
:10088000F60D609328027093290280932A029093B8
:100890002B0260912002709121028091220290919E
:1008A0002302A0902402B0902502C0902602D0908E
:1008B0002702609028027090290280902A0290906E
:1008C0002B029058A20191010E94450F7B018C01DF
:1008D000C601B50129813A814B815C810E94450F97
:1008E0009B01AC01C801B7010E94F60DA401930160
:1008F0000E94F60D609330027093310280933202B1
:10090000909333028091300290913102A091320293
:10091000B0913302BC01CD010F900F900F900F905A
:10092000CF91DF911F910F91FF90EF90DF90CF90CB
:10093000BF90AF909F908F907F906F905F904F90FF
:100940003F902F9008952F923F924F925F926F9217
:100950007F928F929F92AF92BF92CF92DF92EF924F
:10096000FF920F931F93DF93CF9300D000D0CDB7AA
:10097000DEB749835A836B837C83AA2797FDA095B2
:10098000BA2FBC01CD010E94910E1B012C012981BF
:100990003A814B815C810E94F50D60934002709317
:1009A000410280934202909343026091C50170918D
:1009B000C6018091C7019091C801209140023091F9
:1009C000410240914202509143020E94450FA20110
:1009D00091010E94450F7B018C016091440270914E
:1009E0004502809146029091470220913402309155
:1009F000350240913602509137020E94D6099B0180
:100A0000AC01609134027091350280913602909170
:100A100037020E94F50D6093340270933502809383
:100A20003602909337026091C9017091CA0180919A
:100A3000CB019091CC012091400230914102409134
:100A40004202509143020E94450F29813A814B8115
:100A50005C810E94450F7B018C0160914402709182
:100A600045028091460290914702209138023091D0
:100A7000390240913A0250913B0250580E94D609E7
:100A80009B01AC01609138027091390280913A0269
:100A900090913B020E94F60D6093380270933902E8
:100AA00080933A0290933B026091CD017091CE0108
:100AB0008091CF019091D00120914002309141026C
:100AC00040914202509143020E94450F7B018C01EC
:100AD00060914402709145028091460290914702D4
:100AE00020913C0230913D0240913E0250913F02E4
:100AF00050580E94D6099B01AC0160913C02709154
:100B00003D0280913E0290913F020E94F60D60935B
:100B10003C0270933D0280933E0290933F026091AD
:100B20003402709135028091360290913702A09084
:100B30003802B0903902C0903A02D0903B026090E7
:100B40003C0270903D0280903E0290903F0290588F
:100B5000A20191010E94450F7B018C01C601B501E4
:100B600029813A814B815C810E94450F9B01AC0138
:100B7000C801B7010E94F60DA40193010E94F60D71
:100B8000609344027093450280934602909347021B
:100B90008091440290914502A0914602B091470293
:100BA000BC01CD010F900F900F900F90CF91DF916E
:100BB0001F910F91FF90EF90DF90CF90BF90AF907B
:100BC0009F908F907F906F905F904F903F902F906D
:100BD00008952F923F924F925F926F927F928F92E1
:100BE0009F92AF92BF92CF92DF92EF92FF920F93BC
:100BF0001F93DF93CF9300D000D0CDB7DEB74983EA
:100C00005A836B837C83AA2797FDA095BA2FBC01DA
:100C1000CD010E94910E1B012C0129813A814B814B
:100C20005C810E94F50D609354027093550280938D
:100C30005602909357026091D1017091D201809138
:100C4000D3019091D40120915402309155024091EA
:100C50005602509157020E94450FA20191010E9435
:100C6000450F7B018C01609158027091590280916F
:100C70005A0290915B0220914802309149024091C2
:100C80004A0250914B020E94D6099B01AC0160912F
:100C900048027091490280914A0290914B020E9451
:100CA000F50D609348027093490280934A02909335
:100CB0004B026091D5017091D6018091D70190913E
:100CC000D801209154023091550240915602509122
:100CD00057020E94450F29813A814B815C810E9415
:100CE000450F7B018C0160915802709159028091EF
:100CF0005A0290915B0220914C0230914D0240913A
:100D00004E0250914F0250580E94D6099B01AC01EF
:100D100060914C0270914D0280914E0290914F0271
:100D20000E94F60D60934C0270934D0280934E0228
:100D300090934F026091D9017091DA018091DB01AB
:100D40009091DC012091540230915502409156025D
:100D5000509157020E94450F7B018C01609158020F
:100D60007091590280915A0290915B022091500239
:100D700030915102409152025091530250580E94BA
:100D8000D6099B01AC016091500270915102809193
:100D90005202909153020E94F60D6093500270939C
:100DA00051028093520290935302609148027091D5
:100DB000490280914A0290914B02A0904C02B0905F
:100DC0004D02C0904E02D0904F0260905002709041
:100DD000510280905202909053029058A2019101CA
:100DE0000E94450F7B018C01C601B50129813A8122
:100DF0004B815C810E94450F9B01AC01C801B7018A
:100E00000E94F60DA40193010E94F60D6093580212
:100E10007093590280935A0290935B02809158021A
:100E200090915902A0915A02B0915B02BC01CD0190
:100E30000F900F900F900F90CF91DF911F910F9116
:100E4000FF90EF90DF90CF90BF90AF909F908F90EA
:100E50007F906F905F904F903F902F9008952F92CA
:100E60003F924F925F926F927F928F929F92AF923A
:100E7000BF92CF92DF92EF92FF920F931F93DF9377
:100E8000CF9300D000D0CDB7DEB749835A836B83B0
:100E90007C83AA2797FDA095BA2FBC01CD010E94A3
:100EA000910E1B012C0129813A814B815C810E94AA
:100EB000F50D609368027093690280936A029093C3
:100EC0006B026091DD017091DE018091DF019091F4
:100ED000E001209168023091690240916A025091CC
:100EE0006B020E94450FA20191010E94450F7B01F8
:100EF0008C0160916C0270916D0280916E029091F4
:100F00006F0220915C0230915D0240915E0250912F
:100F10005F020E94D6099B01AC0160915C02709156
:100F20005D0280915E0290915F020E94F50D6093D8
:100F30005C0270935D0280935E0290935F02609109
:100F4000E1017091E2018091E3019091E40120912F
:100F500068023091690240916A0250916B020E94CE
:100F6000450F29813A814B815C810E94450F7B01AD
:100F70008C0160916C0270916D0280916E02909173
:100F80006F022091600230916102409162025091A3
:100F9000630250580E94D6099B01AC016091600227
:100FA0007091610280916202909163020E94F60D3D
:100FB0006093600270936102809362029093630277
:100FC0006091E5017091E6018091E7019091E8015F
:100FD000209168023091690240916A0250916B023F
:100FE0000E94450F7B018C0160916C0270916D0233
:100FF00080916E0290916F0220916402309165029F
:10100000409166025091670250580E94D6099B0198
:10101000AC016091640270916502809166029091CA
:1010200067020E94F60D60936402709365028093DC
:1010300066029093670260915C0270915D028091FC
:101040005E0290915F02A0906002B0906102C09039
:101050006202D0906302609064027090650280909A
:101060006602909067029058A20191010E94450F7C
:101070007B018C01C601B50129813A814B815C81DC
:101080000E94450F9B01AC01C801B7010E94F60DFB
:10109000A40193010E94F60D60936C0270936D029F
:1010A00080936E0290936F0280916C0290916D021A
:1010B000A0916E02B0916F02BC01CD010F900F9014
:1010C0000F900F90CF91DF911F910F91FF90EF90B4
:1010D000DF90CF90BF90AF909F908F907F906F9058
:1010E0005F904F903F902F9008952F923F924F9294
:1010F0005F926F927F928F929F92AF92BF92CF92A8
:10110000DF92EF92FF920F931F93DF93CF93CDB7B0
:10111000DEB7C456D0400FB6F894DEBF0FBECDBFC9
:101120003C01522E432E342E252E4801009759F4AF
:101130000F2EF0E0AF2EF0E0BF2EF0E0CF2EF3EC5C
:10114000DF2EF02D86C0CB01E42FF52FA901BF01C2
:101150000E94270A562E472E382E292E02301105BE
:1011600011F10330110524F40130110539F411C0D7
:101170000330110511F10430110549F10F2EF0E093
:10118000AF2EF0E0BF2EF0ECCF2EF1E4DF2EF02DED
:1011900029C0C301252D342DE32DF22DA901BF0156
:1011A0000E945F031DC0C301252D342DE32DF22DB8
:1011B000A901BF010E94A30413C0C301252D342D32
:1011C000E32DF22DA901BF010E94E90509C0C30169
:1011D000252D342DE32DF22DA901BF010E942F07EB
:1011E0005B016C010091180210911902015010402E
:1011F000B801882777FD8095982F0F5F1F4F0E94B9
:10120000910E9B01AC01C601B5010E94410F181659
:10121000BCF000911A0210911B020F5F1F4FB80122
:10122000882777FD8095982F015010400E94910EDD
:101230009B01AC01C601B5010E945A0E88234CF4F3
:10124000B801882777FD8095982F0E94910E5B0149
:101250006C0192E089169104F1F0E3E08E1691049E
:101260002CF4F1E08F169104F1F509C083E08816A3
:101270009104F1F094E089169104A9F526C0C60105
:10128000B50120E030E040E053E40E94F60D0E94FA
:101290005E0E61BF28C0C601B50120E030E040E02D
:1012A00053E40E94F60D0E945E0E7BBD6ABD1BC01A
:1012B000C601B50120E030E040E053E40E94F60DA5
:1012C0000E945E0E79BD68BD0EC0C601B50120E06A
:1012D00030E040E053E40E94F60D0E945E0E7093F1
:1012E000790060937800EDB7FEB772970FB6F89467
:1012F000FEBF0FBEEDBF0DB71EB70F5F1F4F7E01C4
:101300000894E11CF11CF282E18289EE91E0F8017F
:101310009383828395828482C601B50120E030E008
:1013200040E053E40E94F60D0E945E0EF8017783C0
:10133000668371866086A286B386C486D586252D8F
:10134000342D432D522DC901DA0186879787A08B52
:10135000B18B0E94D1108DB79EB742960FB6F8940C
:101360009EBF0FBE8DBFC7010E94380A252D342DA8
:10137000432D522DB901CA01CC59DF4F0FB6F89455
:10138000DEBF0FBECDBFCF91DF911F910F91FF90B8
:10139000EF90DF90CF90BF90AF909F908F907F9015
:1013A0006F905F904F903F902F900895AF92BF92B3
:1013B000CF92DF92EF92FF920F931F935B016C012C
:1013C0006091180270911902882777FD8095982FF7
:1013D0000E94910E9B01AC01C601B5010E94410F14
:1013E000882354F0B701C80120E030E040E050E02D
:1013F0000E94410F87FF1CC060911A0270911B026E
:10140000882777FD8095982F0E94910E9B01AC0153
:10141000C601B5010E945A0E181674F0B701C80132
:1014200020E030E040E050E00E945A0E181624F010
:10143000EE24FF2400E010E0B701C8011F910F91D6
:10144000FF90EF90DF90CF90BF90AF900895AA27C4
:1014500097FDA095BA2FBC01CD010E94910E089571
:10146000982F80919B0085FFFCCF90939C0008955E
:10147000FC0107C080919B0085FFFCCF90939C00EE
:10148000319690819923B1F708952F923F924F9210
:101490005F926F927F928F929F92AF92BF92CF9204
:1014A000DF92EF92FF920F931F93DF93CF93CDB70D
:1014B000DEB761970FB6F894DEBF0FBECDBF3C011B
:1014C0007F876E876A01FC0117821682838181FD06
:1014D00003C06FEF7FEF6FC39E012F5F3F4F398BCC
:1014E000288BF3012381EE85FF8523FD859123FF62
:1014F0008191FF87EE87882309F45AC3853251F41E
:10150000EE85FF8523FD859123FF8191FF87EE877F
:10151000853229F490E0B3010E94A510E2CF982F04
:1015200010E0882499241032B0F49B3269F09C3288
:1015300028F4903251F0933271F40BC09D3239F09F
:10154000903349F4116028C01260146025C01860FF
:1015500023C0106121C017FD2AC0892F80538A3013
:1015600078F416FF06C0FAE09F9E902C1124980E86
:1015700013C03AE0839E802C1124880E10620CC0A8
:101580009E3221F416FD14C3106406C09C3611F47B
:10159000106802C0983659F4EE85FF8523FD9591B9
:1015A00023FF9191FF87EE87992309F0BCCF892F04
:1015B0008554833020F4812F8061905E07C0892F8D
:1015C0008556833008F09FC1812F8F7E86FD02C033
:1015D00076E0972E6FE3F62EF822953619F4F0E4B4
:1015E000FF2A07C0963619F420E8F22A02C09110AB
:1015F0009A94F7FE0AC03BE3391518F45CE3B52E64
:1016000002C0B92CB39427E009C047E0491520F483
:10161000BB2447E0942EF7CF292DBB24C6010496A6
:101620009D878C87F6016081718182819381AE01F3
:101630004F5F5F4F0B2D0E94A80F6C010981202E78
:10164000332400FF04C003FD02C01DE209C0F1FE07
:1016500002C01BE205C0F2FC02C010E001C010E2B3
:10166000C1018C709070892BB9F1112311F483E0C2
:1016700001C084E0881510F088240AC0881AF3FCA1
:1016800007C080E290E0B3010E94A5108A94C9F7D8
:10169000112329F0812F90E0B3010E94A51023FEB1
:1016A00003C00CE810E00EC000E910E00BC0E1142C
:1016B000F10409F0805290E0B3010E94A5100F5F81
:1016C0001F4F05C0EF2CFF24F0E1EF22FF24F801AB
:1016D0008491882361F714C1F7FE12C0BC0C24FE6C
:1016E00004C08A81813309F4BA941B141CF0BB2412
:1016F000B3942DC0F8E0FB1550F538E0B32E27C0A9
:10170000F6FC25C0892D90E08C159D054CF02CEF42
:10171000C2162FEFD20624F030E8F32A01C09A94C3
:10172000992049F0E2E0F0E0EC0FFD1FE90DF11D1A
:1017300080818033A1F3F7FE0AC0B92CB394892DC0
:1017400090E0C816D90614F0992401C09C18F7FC43
:1017500003C025E030E009C01C141D041CF021E08A
:1017600030E003C096012F5F3F4F112311F02F5F30
:101770003F4F992029F0892D90E00196280F391FBD
:10178000882D90E02817390714F0882401C0821AA8
:101790004F2C5524C20189709070892B39F008C0F4
:1017A00080E290E0B3010E94A5108A948820C1F7DE
:1017B000112329F0812F90E0B3010E94A51043FE70
:1017C00007C008C080E390E0B3010E94A5108A948E
:1017D0008820C1F7F7FE46C08601D7FE02C000E0B0
:1017E00010E076010894E11CF11CE01AF10A41E0D6
:1017F00050E04C0F5D1FE40EF51E26014B185108FA
:10180000892D90E0AA24BB24A81AB90A5FEF0F3FE4
:10181000150729F48EE290E0B3010E94A510C016CE
:10182000D10634F0401651061CF4F701808101C046
:1018300080E3015010400894E11CF11C0A151B05BF
:101840002CF090E0B3010E94A510E0CF0C151D050F
:1018500039F49A81963318F4953311F424FE81E318
:1018600090E04BC08A81813309F00F7E90E0B30194
:101870000E94A5109920A1F08EE290E0B3010E9491
:10188000A51012E0E1E0F0E0EC0FFD1FE10FF11D0B
:101890001F5F808190E0B3010E94A5109A9491F798
:1018A00044FC03C085E690E002C085E490E0B3010B
:1018B0000E94A510D7FC05C0C114D10441F404FF57
:1018C00006C0D094C194D108D3948DE201C08BE2BC
:1018D00090E0B3010E94A51080E305C08F5F26EF62
:1018E0003FEFC20ED31E3AE0C316D104BCF790E01E
:1018F000B3010E94A510C601C096B3010E94A510B5
:10190000CC84DD8452C1933631F0933799F093350E
:1019100009F059C023C0F601808189835E010894D3
:10192000A11CB11C22E030E0C20ED31E21E0E22E49
:10193000F12C12C0F601A080B18016FD03C06FEF3C
:101940007FEF02C0692D70E022E030E0C20ED31EAE
:10195000C5010E948B107C011F7713C0F601A08087
:10196000B18016FD03C06FEF7FEF02C0692D70E0FC
:1019700022E030E0C20ED31EC5010E9480107C011F
:10198000106813FF07C01BC080E290E0B3010E9403
:10199000A5108A94882D90E0E816F906A8F30FC0E8
:1019A000F50117FD859117FF81915F0190E0B3016B
:1019B0000E94A51081108A940894E108F108E114AE
:1019C000F10471F7F2C0943611F0993689F517FFDA
:1019D00008C0F601208131814281538184E090E08A
:1019E0000AC0F601808191819C01442737FD409512
:1019F000542F82E090E0C80ED91E9FE6F92EF12206
:101A000057FF09C050954095309521953F4F4F4F56
:101A10005F4F90E8F92ACA01B901AE014F5F5F4FED
:101A20002AE030E00E942511E82EE889EE1A41C034
:101A3000953721F41F7E2AE030E01CC0197F9F36C5
:101A400061F0903720F4983509F0B2C00FC090379C
:101A500039F0983709F0ACC004C028E030E00AC083
:101A6000106114FD146020E130E004C014FD166024
:101A700020E132E017FF08C0F601608171818281A8
:101A8000938144E050E008C0F60180819181BC015F
:101A900080E090E042E050E0C40ED51EAE014F5F02
:101AA0005F4F0E942511E82E5889E51A8FE7F82E1E
:101AB000F122F6FE0BC08EEFF822E91438F4F4FEA2
:101AC00007C0F2FC05C09FEEF92202C01E2D01C026
:101AD000192DF4FE0DC0FE01EE0DF11D8081803345
:101AE00019F4E9EEFE2208C01F5FF2FE05C003C034
:101AF0008F2D867809F01F5F0F2DF3FC14C0F0FEC8
:101B00000FC0181510F09E2C0BC09E2C980C911A2B
:101B1000182D06C080E290E0B3010E94A5101F5F5F
:101B20001815C0F304C0181510F4811A01C08824D8
:101B300004FF0FC080E390E0B3010E94A51002FFF4
:101B40001DC001FD03C088E790E00EC088E590E06D
:101B50000BC0802F867891F001FF02C08BE201C09C
:101B600080E2F7FC8DE290E0B3010E94A51006C070
:101B700080E390E0B3010E94A5109A94E914C0F3A9
:101B8000EA94E1E0F0E0EC0FFD1FEE0DF11D808125
:101B900090E0B3010E94A510EE2091F706C080E20C
:101BA00090E0B3010E94A5108A948820C1F799CCD7
:101BB000F30166817781CB0161960FB6F894DEBFA1
:101BC0000FBECDBFCF91DF911F910F91FF90EF908E
:101BD000DF90CF90BF90AF909F908F907F906F904D
:101BE0005F904F903F902F9008955058BB27AA27A1
:101BF0000ED00DC1FED030F003D120F031F49F3F64
:101C000011F41EF4F3C00EF4E095E7FBE9C0E92FF0
:101C10000FD180F3BA17620773078407950718F08E
:101C200071F49EF527C10EF4E0950B2EBA2FA02D6E
:101C30000B01B90190010C01CA01A0011124FF2779
:101C4000591B99F0593F50F4503E68F11A16F04074
:101C5000A22F232F342F4427585FF3CF4695379573
:101C60002795A795F0405395C9F77EF41F16BA0B38
:101C7000620B730B840BBAF09150A1F0FF0FBB1FE6
:101C8000661F771F881FC2F70EC0BA0F621F731F2F
:101C9000841F48F4879577956795B795F7959E3F8C
:101CA00008F0B3CF9395880F08F09927EE0F97951A
:101CB0008795089571D008F481E0089504D0689460
:101CC000B111D9C00895BCD088F09F5790F0B92FBA
:101CD0009927B751A0F0D1F0660F771F881F991F81
:101CE0001AF0BA95C9F712C0B13081F0C3D0B1E093
:101CF0000895C0C0672F782F8827B85F39F0B93FA3
:101D0000CCF3869577956795B395D9F73EF4909582
:101D10008095709561957F4F8F4F9F4F0895E89400
:101D200009C097FB3EF490958095709561957F4F23
:101D30008F4F9F4F9923A9F0F92F96E9BB279395D1
:101D4000F695879577956795B795F111F8CFFAF4E1
:101D5000BB0F11F460FF1BC06F5F7F4F8F4F9F4F12
:101D600016C0882311F096E911C0772321F09EE870
:101D7000872F762F05C0662371F096E8862F70E0D6
:101D800060E02AF09A95660F771F881FDAF7880FB0
:101D90009695879597F90895990F0008550FAA0B06
:101DA000E0E8FEEF16161706E807F907C0F012166E
:101DB0001306E407F50798F0621B730B840B950B71
:101DC00039F40A2661F0232B242B252B21F40895C6
:101DD0000A2609F4A140A6958FEF811D811D089563
:101DE00097F99F6780E870E060E008959FEF80ECCE
:101DF000089500240A941616170618060906089571
:101E000000240A9412161306140605060895092ED6
:101E10000394000C11F4882352F0BB0F40F4BF2B45
:101E200011F460FF04C06F5F7F4F8F4F9F4F089585
:101E300057FD9058440F551F59F05F3F71F047957B
:101E4000880F97FB991F61F09F3F79F08795089560
:101E5000121613061406551FF2CF4695F1DF08C07F
:101E6000161617061806991FF1CF8695710561059C
:101E700008940895E894BB2766277727CB0197F944
:101E800008958ADF08F48FEF08950BD0C0CFB1DF3B
:101E900028F0B6DF18F0952309F0A2CFA7CF1124C0
:101EA000EACFC6DFA0F3959FD1F3950F50E0551F01
:101EB000629FF001729FBB27F00DB11D639FAA279F
:101EC000F00DB11DAA1F649F6627B00DA11D661FEE
:101ED000829F2227B00DA11D621F739FB00DA11D0F
:101EE000621F839FA00D611D221F749F3327A00DC9
:101EF000611D231F849F600D211D822F762F6A2F65
:101F000011249F5750408AF0E1F088234AF0EE0FE9
:101F1000FF1FBB1F661F771F881F91505040A9F7F6
:101F20009E3F510570F05CCFA6CF5F3FECF3983E2B
:101F3000DCF3869577956795B795F795E7959F5F5D
:101F4000C1F7FE2B880F911D9695879597F90895F7
:101F5000283008F027E03327DA01990F311D87FD7B
:101F6000916000966105710539F432602E5F3D93F2
:101F700030E32A95E1F708959F3F30F080387105EE
:101F8000610509F03C5F3C5F3D93913008F080684B
:101F9000911DDF93CF931F930F93FF92EF92192F11
:101FA000987F9695E92F96959695E90FFF27E25130
:101FB000FF4F99273327EE24FF24A701E70105905F
:101FC0000894079428F4360FE71EF81E491F511D88
:101FD000660F771F881F991F0694A1F70590079435
:101FE00028F4E70EF81E491F561FC11D770F881FE2
:101FF000991F661F0694A1F70590079428F4F80E20
:10200000491F561FC71FD11D880F991F661F771FB5
:102010000694A1F70590079420F4490F561FC71F97
:10202000D81F990F661F771F881F0694A9F7849100
:102030001095177041F0D695C79557954795F79429
:10204000E7941A95C1F7E4E9F0E0689415901591CA
:1020500035916591959105907FE27395E118F10AAC
:10206000430B560BC90BD009C0F7E10CF11E431FFF
:10207000561FC91FD01D7EF4703311F48A95E6CF28
:10208000E894015030F0080F0AF40027021708F412
:10209000202F2395022F7A3328F079E37D932A9518
:1020A000E9F710C07D932A9589F606949795679570
:1020B000379517951794E118F10A430B560BC90B86
:1020C000D00998F023957E9173957A3308F070E3E8
:1020D0007C932013B8F77E9170617D9330F08395E7
:1020E00071E37D9370E32A95E1F71124EF90FF905F
:1020F0000F911F91CF91DF91992787FD90950895BA
:10210000FC010590615070400110D8F780959095C2
:102110008E0F9F1F0895FC016150704001900110C7
:10212000D8F7809590958E0F9F1F0895DC015D91E3
:10213000552331F0FB01019005160110E1F7B9F3C9
:10214000809590958A0F9B1F08950F931F93CF93AF
:10215000DF938C01EB018B8181FF1BC082FF0DC0DF
:102160002E813F818C819D812817390764F4E88195
:10217000F9810193F983E88306C0E885F985802F0A
:102180000995892B31F48E819F8101969F838E83DF
:1021900002C00FEF1FEFC801DF91CF911F910F9188
:1021A00008950F931F93DF93CF93CDB7DEB72E978C
:1021B0000FB6F894DEBF0FBECDBF0D891E8986E035
:1021C0008C831A8309838FEF9FE79E838D839E0103
:1021D000275E3F4FCE0101966F89788DA9010E943D
:1021E000450A2F813885020F131FF80110822E96A1
:1021F0000FB6F894DEBF0FBECDBFCF91DF911F9118
:102200000F910895DF93CF93CDB7DEB72E970FB61A
:10221000F894DEBF0FBECDBF85E08C838B899C898F
:102220009A8389839E01295E3F4FCE0101966D8975
:102230007E89A9010E9432132E960FB6F894DEBF54
:102240000FBECDBFCF91DF910895FA01AA272830A4
:1022500051F1203181F1E8946F936E7F6E5F7F4F73
:102260008F4F9F4FAF4FB1E03ED0B4E03CD0670FEF
:10227000781F891F9A1FA11D680F791F8A1F911D42
:10228000A11D6A0F711D811D911DA11D20D009F492
:1022900068943F912AE0269F11243019305D3193D4
:1022A000DEF6CF010895462F4770405D4193B3E0BD
:1022B0000FD0C9F7F6CF462F4F70405D4A3318F064
:1022C000495D31FD4052419302D0A9F7EACFB4E015
:1022D000A6959795879577956795BA95C9F70097CD
:1022E0006105710508959B01AC010A2E069457956E
:1022F000479537952795BA95C9F7620F731F841FC5
:10230000951FA01D0895FC0120FD08C023FD05C0F8
:1023100022FF02C073836283518340830895EF924A
:10232000FF920F931F9344FF02C033E011C046FF9A
:1023300002C034E00DC0DB01FC01AA0FBB1FEE1F81
:10234000FF1F1094D1F76A0F7B1F8E1F9F1F31E074
:10235000660F771F881F991F3150D1F77B018C01C1
:10236000E20EF11C011D111DA8019701B701CA0160
:102370001F910F91FF90EF9008950F931F93CF93AC
:10238000DF938C01C8010E946814EC0197FD08C01E
:102390000E945514892BB1F7CE01B8010E94AA14EE
:1023A000CE01DF91CF911F910F910895AF92BF920F
:1023B000CF92DF92EF92FF920F931F93CF93DF9311
:1023C000EC01C62E5A01122F0E946814AC018B3208
:1023D00019F08D3251F41068CA9409F46DC0CE0121
:1023E0000E946814AC0197FD67C06DEFD62ED12214
:1023F0008D2D807301F54033F1F4CA9409F447C080
:10240000CE010E946814AC0197FD41C082E0D82A39
:10241000483711F0483559F480E4D82ACA94B9F104
:10242000CE010E946814AC0199232CF430C0D6FC74
:1024300002C080E1D82AEE24FF248701242F2053F4
:10244000283088F0D4FC09C02A3068F0D6FE05C0D8
:102450002F7D822F8151863028F0CA01BE010E9453
:10246000AA1412C02750C801B7014D2D0E948F1128
:102470007B018C0182E0D82ACA9461F0CE010E94CF
:102480006814AC0197FFDACFD1FC04C015C0EE246C
:10249000FF248701D7FE08C010950095F094E094C2
:1024A000E11CF11C011D111DC501B801A7012D2D55
:1024B0000E94831181E001C080E0DF91CF911F91E4
:1024C0000F91FF90EF90DF90CF90BF90AF90089565
:1024D0006F927F928F929F92AF92BF92CF92DF9234
:1024E000EF92FF920F931F93DF93CF93CDB7DEB799
:1024F000A0970FB6F894DEBF0FBECDBF6C01A62E1D
:102500008A017901FE01319680E2DF011D928A95F0
:10251000E9F770E030E060E040E050E04F01A1E01A
:10252000B0E0F6018381F70183FD259183FF2191BE
:102530007F01222309F47EC02E3519F4411551057F
:1025400069F1872F90E08417950744F42D3551F1F8
:102550002D3221F4332329F431E021C0332309F44F
:10256000622F322F832F869586958695F401E80F8A
:10257000F11D832F87703D0102C0660C771C8A9580
:10258000E2F7208126292083361711F430E007C0B6
:10259000361710F43F5FE6CF3150E4CF71E04F5F64
:1025A0005F4FBFCF332319F08E8180628E837723F4
:1025B00059F0FE0131969E012F5D3F4F808180953D
:1025C0008193E217F307D1F7BB24B3944E0108942B
:1025D000811C911CC6010E946814AC0197FD22C0A9
:1025E000869586958695F401E80FF11D808190E02F
:1025F0009A012770307002C0959587952A95E2F769
:1026000080FD05C0CA01B6010E94AA140BC00115C5
:10261000110519F0D8014D938D01AA94BB24AA206D
:10262000C9F602C0BB2031F40115110529F0F801EB
:10263000108202C0EE24FF24C701A0960FB6F894C2
:10264000DEBF0FBECDBFCF91DF911F910F91FF90E5
:10265000EF90DF90CF90BF90AF909F908F907F9042
:102660006F9008956F927F928F929F92AF92BF92D8
:10267000CF92DF92EF92FF920F931F93CF93DF934E
:102680005C016B013A01FC01178216828824EAC0C2
:10269000812F90E00E945514892B21F0C5010E94E2
:1026A000BD11E0C0153249F4F601F3FC6591F3FE6B
:1026B00061916F01653269F415E2C5010E946814E9
:1026C00097FDDCC0181709F4CDC0B5010E94AA140B
:1026D000DAC06A3219F0162F00E006C0F3FC15913B
:1026E000F3FE11916F0101E099240FC00260692D82
:1026F00070E080E090E040E20E948F11962EF6019B
:10270000F3FC1591F3FE11916F01212F20532A3014
:1027100068F301FD03C099249A9403C0992009F439
:10272000B2C0183621F01C3699F4F6010BC0F60140
:10273000F3FC6591F3FE6191683619F06F01162F75
:1027400007C008600460F3FC1591F3FE11916F015E
:10275000112309F498C08EE891E0612F70E00E9487
:102760005D14892B09F48FC0802F00FF03C0EE2475
:10277000FF2407C0F301E080F18022E030E0620E28
:10278000731E1E3651F4F5014681578160E070E0FA
:10279000C701202F0E94831165C0133691F481FD7B
:1027A00002C099249394C5010E94681497FD66C0E5
:1027B000E114F10419F0F70181937F019A9499F7DC
:1027C0004FC01B3559F4C501692DA70196010E9420
:1027D00068126C01009709F043C03DC0C5010E941A
:1027E000BD1197FD4BC01F3659F1103728F4143630
:1027F00029F1193639F527C0133719F0153711F5B6
:102800001DC0C5010E946814EC0197FD11C00E9413
:102810005514892B29F0CE01B5010E94AA1408C0D5
:10282000E114F10419F0F701C1937F019A9449F77B
:10283000E114F104A9F0F701108212C0006203C094
:10284000006101C00064C501692DA701202F0E940D
:10285000D611882329F4F5018381807379F413C09C
:1028600000FF8394F501F380F601F3FC1591F3FE6C
:1028700011916F01112309F00BCF05C0882019F4C5
:102880002FEF3FEF02C0282D30E0C901DF91CF913B
:102890001F910F91FF90EF90DF90CF90BF90AF907E
:1028A0009F908F907F906F90089591116DC08032AE
:1028B00019F089508550D0F70895FC01059006164F
:1028C00021F00020D9F7C00108953197CF01089574
:1028D000CF93DF93EC014B8140FF1AC046FF0AC043
:1028E0004F7B4B838E819F8101969F838E838A814C
:1028F000282F2BC042FF13C0E881F9818081282F47
:10290000332727FD30952115310529F440624B838B
:102910002FEF3FEF1BC03196F983E88311C0EA85A2
:10292000FB85CE0109959C0197FF0AC09B812F5F13
:102930003F4F11F080E201C080E1892B8B83E8CF0B
:102940008E819F8101969F838E8330E0C901DF9144
:10295000CF9108959C01FB01838180FF11C086FD0A
:102960000FC09FEF2F3F390759F0228380648F7D7E
:1029700083838681978101979783868330E002C0A5
:102980002FEF3FEFC9010895992788270895F894FC
:02299000FFCF77
:102992004D4355206F6E6C696E650D0A00506F775E
:1029A2006572204F6E2052657365740D0A0045787A
:1029B2007465726E616C2052657365740D0A004213
:1029C200726F776E2D6F75742052657365740D0A80
:1029D200005754462052657365740D0A00426172B5
:1029E2006B204261726B0D0A002C30313233343568
:1029F200363738390025642C25642C25642C25644F
:102A02002C25642C25642C25642C25642C25642C0F
:102A120025642C25642C25642C25642C25642C2506
:102A2200642C25642C25642C25642C25642C2564B7
:102A32000092CEC03A92CEC03A0000F0410000F0BF
:102A4200410000F0410000F041ACC52737ACC5277A
:102A52003717B7D138ACC52737ACC5273717B7D129
:102A620038ACC52737ACC5273717B7D138ACC5271F
:102A720037ACC5273717B7D13846616E5F42616EF2
:102A82006B2025643A2025642C2054733A20256457
:102A92002C20753A2025322E35662C20546D3A2092
:0C2AA20025322E35660D0A001800BAFF20
:00000001FF
