:100000000C94CD000C94EC000C94EC000C94EC00DF
:100010000C94EC000C94EC000C94EC000C94EC00B0
:100020000C94EC000C94EC000C94EC000C94EC00A0
:100030000C94EC000C94EC000C94EC000C94EC0090
:100040000C94EC000C94EC000C94EC000C94EC0080
:100050000C94EC000C94EC000C94EC000C94EC0070
:100060000C94EC000C94EC000C94EC000C94EC0060
:100070000C94EC000C94EC000C942C010C94EC000F
:100080000C94EC000C94EC000C94EC006E616E008F
:10009000696E660000407A10F35A00A0724E18098B
:1000A0000010A5D4E80000E87648170000E40B54DF
:1000B000020000CA9A3B000000E1F50500008096AE
:1000C0009800000040420F000000A08601000000E0
:1000D000102700000000E80300000000640000009A
:1000E00000000A00000000000100000000002C7663
:1000F000D888DC674F0823DFC1DFAE59E1B1B7967E
:10010000E5E3E453C63AE651997696E8E6C28426DA
:10011000EB898C9B62ED407C6FFCEFBC9C9F40F2B6
:10012000BAA56FA5F490055A2AF75C936B6CF96732
:100130006DC11BFCE0E40D47FEF520E6B500D0EDF7
:10014000902E0300943577050080841E080000205F
:100150004E0A000000C80C333333330F986E1283FD
:100160001141EF8D2114893BE65516CFFEE6DB18D1
:10017000D1844B381BF77C1D901DA4BBE424203296
:1001800084725E228100C9F124ECA1E53D276364FD
:10019000696E6F70737578585B0011241FBECFEFC6
:1001A000D0E1DEBFCDBF12E0A0E0B1E0E8EBFAE2C3
:1001B00000E00BBF02C007900D92AC31B107D9F738
:1001C00012E0ACE1B2E001C01D92A43DB107E1F73D
:1001D0000E94EF020C945A150C94000010929800A3
:1001E0008CE08093990088E980939A0086E0809360
:1001F0009D000895BC9A83B7886483BF83B78062EB
:1002000083BF83B7816083BFBD9A8FB580688FBD80
:100210008FB581608FBD8EB588608EBD8EB58160D3
:100220008EBDBE9A8FB580628FBD8FB581608FBD48
:100230008EB588608EBD8EB581608EBDBF9A8FB53C
:1002400088608FBD8FB581608FBD8EB588608EBD93
:100250008EB581608EBD08951F920F920FB60F92DA
:100260000BB60F921124EF92FF920F931F932F93CF
:100270003F934F935F936F937F938F939F93AF932E
:10028000BF93EF93FF93DF93CF93CDB7DEB7A897DC
:10029000DEBFCDBFE0911C02F0911D0280919C0059
:1002A00090E7E92E92E0F92EEE0DFF1D80838091FC
:1002B0001C0290911D02019690931D0280931C02D6
:1002C000E0911C02F0911D02E159FD4F80818823CD
:1002D00009F050C110921D0210921C02D7010D901E
:1002E0000020E9F78D01015010400E191F09C701C8
:1002F00060E071E00E941D110817190709F02EC176
:100300000B33110509F02AC110921F0210921E0230
:10031000A895EDB7FEB7BC970FB6F894FEBF0FBE19
:10032000EDBF3196ADB7BEB71296FC92EE92119723
:100330008CE091E093838283CE0109969583848338
:10034000CE010B9697838683CE010D969187808789
:10035000CE010F9693878287CE0141969587848739
:10036000CE01439697878687CE014596918B808BE9
:10037000CE014796938B828BCE014996958B848BC9
:10038000CE014B96978B868BCE014D96918F808FA9
:10039000CE014F96938F828FCE018196958F848F59
:1003A000CE018396978F868FCE01859691A380A3E9
:1003B000CE01879693A382A3CE01019695A384A331
:1003C000CE01039697A386A3CE01059691A780A799
:1003D000CE01079693A782A70E94881169857A8526
:1003E000EDB7FEB7BC960FB6F894FEBF0FBEEDBFDB
:1003F00077FF02C060E070E08B859C856817790705
:100400000CF4BC018D859E85681779070CF4BC013E
:100410002091A9013091AA014091AB015091AC010A
:100420008F859889861797070CF4CB0169817A81AB
:1004300001E010E00E94E8086093A9017093AA010E
:100440008093AB019093AC0169897A8977FF02C0F0
:1004500060E070E08B899C89681779070CF4BC0117
:100460008D899E89681779070CF4BC012091AD0134
:100470003091AE014091AF015091B0018F89988DBC
:10048000861797070CF4CB016B817C8102E010E0AA
:100490000E94E8086093AD017093AE018093AF01B4
:1004A0009093B001898D9A8D97FF02C080E090E013
:1004B0002B8D3C8D821793070CF4C9012D8D3E8D39
:1004C000821793070CF4C9012091B1013091B20158
:1004D0004091B3015091B4016F8D78A186179707B1
:1004E0000CF4CB016D817E8103E010E00E94E808EE
:1004F0006093B1017093B2018093B3019093B40102
:1005000069A17AA177FF02C060E070E08BA19CA195
:10051000681779070CF4BC018DA19EA168177907B3
:100520000CF4BC012091B5013091B6014091B701A6
:100530005091B8018FA198A5861797070CF4CB01AD
:100540006F81788504E010E00E94E8086093B501AF
:100550007093B6018093B7019093B80184E6E0E709
:10056000F2E0DF011D928A95E9F710921D021092C8
:100570001C0219C080911C0290911D028C339105C0
:1005800094F084E6F70111928A95E9F710921D0222
:1005900010921C0280911E0290911F02019690936E
:1005A0001F0280931E02A896DEBFCDBFCF91DF91C0
:1005B000FF91EF91BF91AF919F918F917F916F913B
:1005C0005F914F913F912F911F910F91FF90EF906D
:1005D0000F900BBE0F900FBE0F901F901895CF93EA
:1005E000C4B714BE0E94EE000E94FA002FE088E11A
:1005F00090E00FB6F894A89581BD0FBE21BD80E8AC
:1006000081BF80E890E09BBD8ABD99BD88BD909375
:100610007900809378008FEF92E5A7E081509040B9
:10062000A040E1F700C0000088E491E00E94C00A09
:10063000C0FF03C085E591E00CC0C1FF03C086E6A2
:1006400091E007C0CC2319F087E791E002C089E868
:1006500091E00E94C00A78948FEF99E6A8E181505A
:100660009040A040E1F700C0000080911E029091F0
:100670001F02019690931F0280931E0280911E021A
:1006800090911F028C33910514F4A895E5CF85E96C
:1006900091E00E94C00AE0CF2F923F924F925F926A
:1006A0006F927F928F929F92AF92BF92CF92DF9282
:1006B000EF92FF920F931F93DF93CF9300D000D060
:1006C000CDB7DEB749835A836B837C839C01B90124
:1006D000882777FD8095982F0E94180F1B012C0109
:1006E00029813A814B815C810E947C0E9B01AC0187
:1006F00020932C0230932D0240932E0250932F0210
:100700006091B9017091BA018091BB019091BC01D7
:1007100020912C0230912D0240912E0250912F02F7
:100720000E94CC0FA20191010E94CC0FE62ED72E81
:10073000B82FA92F6091300270913102809132025E
:1007400090913302209120023091210240912202A7
:1007500050912302FD01FD2C0F2F1E2F0E94520AE3
:100760009B01AC01609120027091210280912202D4
:10077000909123020E947C0E9B01AC0120932002E9
:100780003093210240932202509323026091BD01D5
:100790007091BE018091BF019091C00120912C0207
:1007A00030912D0240912E0250912F020E94CC0FC9
:1007B00029813A814B815C810E94CC0FE62ED72E95
:1007C000B82FA92F609130027091310280913202CE
:1007D000909133022091240230912502409126020B
:1007E00050912702FD01FD2C0F2F1E2F0E94520A4F
:1007F0009B01AC0160912402709125028091260238
:10080000909127020E947D0E9B01AC01209324024F
:100810003093250240932602509327026091C10134
:100820007091C2018091C3019091C40120912C026A
:1008300030912D0240912E0250912F020E94CC0F38
:10084000A62EE72EB82FA92F6091300270913102A9
:100850008091320290913302209128023091290236
:1008600040912A0250912B026E2CFD01EA2CF62CAD
:100870000F2F1E2F0E94520A9B01AC01609128028B
:100880007091290280912A0290912B020E947D0E84
:100890009B01AC01209328023093290240932A0245
:1008A00050932B02609120027091210280912202CC
:1008B00090912302E0902402F090250200912602FC
:1008C00010912702609028027090290280902A02DD
:1008D00090902B029058A20191010E94CC0F5B01D5
:1008E0006C01C801B70129813A814B815C810E946A
:1008F000CC0F9B01AC01C601B5010E947D0EA40185
:1009000093010E947D0E9B01AC0120933002309335
:100910003102409332025093330280913002909121
:100920003102A0913202B0913302682F792F8A2FC1
:100930009B2F0F900F900F900F90CF91DF911F91F1
:100940000F91FF90EF90DF90CF90BF90AF909F906E
:100950008F907F906F905F904F903F902F90089571
:100960002F923F924F925F926F927F928F929F92BF
:10097000AF92BF92CF92DF92EF92FF920F931F93AD
:10098000DF93CF9300D000D0CDB7DEB749835A8331
:100990006B837C839C01B901882777FD8095982F14
:1009A0000E94180F1B012C0129813A814B815C8127
:1009B0000E947C0E9B01AC012093400230934102C7
:1009C00040934202509343026091C5017091C60169
:1009D0008091C7019091C80120914002309141025D
:1009E00040914202509143020E94CC0FA20191011A
:1009F0000E94CC0FD62EE72EB82FA92F609144026B
:100A000070914502809146029091470220913402F4
:100A1000309135024091360250913702AE2CFD01E3
:100A2000ED2CFA2C0F2F1E2F0E94520A9B01AC01B5
:100A300060913402709135028091360290913702B4
:100A40000E947C0E9B01AC0120933402309335024E
:100A500040933602509337026091C9017091CA01E8
:100A60008091CB019091CC012091400230914102C4
:100A700040914202509143020E94CC0F29813A8159
:100A80004B815C810E94CC0FB62FA72FF82FE92F46
:100A90006091440270914502809146029091470214
:100AA000209138023091390240913A0250913B0234
:100AB0005058CF2EDE2EEB2EFA2E86010E94520ABF
:100AC0009B01AC01609138027091390280913A0229
:100AD00090913B020E947D0E9B01AC012093380255
:100AE0003093390240933A0250933B026091CD011A
:100AF0007091CE018091CF019091D0012091400260
:100B00003091410240914202509143020E94CC0F29
:100B1000B62FA72FF82FE92F60914402709145025C
:100B2000809146029091470220913C0230913D0213
:100B300040913E0250913F025058CB2EDA2E760162
:100B40000F2F1E2F0E94520A9B01AC0160913C02A4
:100B500070913D0280913E0290913F020E947D0E75
:100B60009B01AC0120933C0230933D0240933E0236
:100B700050933F02609134027091350280913602A9
:100B800090913702E0903802F090390200913A02D9
:100B900010913B0260903C0270903D0280903E02BA
:100BA00090903F029058A20191010E94CC0F5B01EE
:100BB0006C01C801B70129813A814B815C810E9497
:100BC000CC0F9B01AC01C601B5010E947D0EA401B2
:100BD00093010E947D0E9B01AC012093440230934F
:100BE00045024093460250934702809144029091FF
:100BF0004502A0914602B0914702682F792F8A2FB3
:100C00009B2F0F900F900F900F90CF91DF911F911E
:100C10000F91FF90EF90DF90CF90BF90AF909F909B
:100C20008F907F906F905F904F903F902F9008959E
:100C30002F923F924F925F926F927F928F929F92EC
:100C4000AF92BF92CF92DF92EF92FF920F931F93DA
:100C5000DF93CF9300D000D0CDB7DEB749835A835E
:100C60006B837C839C01B901882777FD8095982F41
:100C70000E94180F1B012C0129813A814B815C8154
:100C80000E947C0E9B01AC012093540230935502CC
:100C900040935602509357026091D1017091D20156
:100CA0008091D3019091D40120915402309155024A
:100CB00040915602509157020E94CC0FA20191011F
:100CC0000E94CC0FD62EE72EB82FA92F6091580284
:100CD0007091590280915A0290915B0220914802D2
:100CE0003091490240914A0250914B02AE2CFD01D5
:100CF000ED2CFA2C0F2F1E2F0E94520A9B01AC01E3
:100D0000609148027091490280914A0290914B0291
:100D10000E947C0E9B01AC01209348023093490253
:100D200040934A0250934B026091D5017091D601D5
:100D30008091D7019091D8012091540230915502B1
:100D400040915602509157020E94CC0F29813A815E
:100D50004B815C810E94CC0FB62FA72FF82FE92F73
:100D6000609158027091590280915A0290915B02F1
:100D700020914C0230914D0240914E0250914F0211
:100D80005058CF2EDE2EEB2EFA2E86010E94520AEC
:100D90009B01AC0160914C0270914D0280914E021A
:100DA00090914F020E947D0E9B01AC0120934C025A
:100DB00030934D0240934E0250934F026091D901FF
:100DC0007091DA018091DB019091DC012091540255
:100DD0003091550240915602509157020E94CC0F1B
:100DE000B62FA72FF82FE92F609158027091590262
:100DF00080915A0290915B022091500230915102F1
:100E000040915202509153025058CB2EDA2E760167
:100E10000F2F1E2F0E94520A9B01AC0160915002BD
:100E20007091510280915202909153020E947D0E66
:100E30009B01AC0120935002309351024093520227
:100E400050935302609148027091490280914A0286
:100E500090914B02E0904C02F0904D0200914E02B6
:100E600010914F0260905002709051028090520297
:100E7000909053029058A20191010E94CC0F5B0107
:100E80006C01C801B70129813A814B815C810E94C4
:100E9000CC0F9B01AC01C601B5010E947D0EA401DF
:100EA00093010E947D0E9B01AC0120935802309368
:100EB000590240935A0250935B02809158029091DC
:100EC0005902A0915A02B0915B02682F792F8A2FA4
:100ED0009B2F0F900F900F900F90CF91DF911F914C
:100EE0000F91FF90EF90DF90CF90BF90AF909F90C9
:100EF0008F907F906F905F904F903F902F900895CC
:100F00002F923F924F925F926F927F928F929F9219
:100F1000AF92BF92CF92DF92EF92FF920F931F9307
:100F2000DF93CF9300D000D0CDB7DEB749835A838B
:100F30006B837C839C01B901882777FD8095982F6E
:100F40000E94180F1B012C0129813A814B815C8181
:100F50000E947C0E9B01AC012093680230936902D1
:100F600040936A0250936B026091DD017091DE0143
:100F70008091DF019091E001209168023091690237
:100F800040916A0250916B020E94CC0FA201910124
:100F90000E94CC0FD62EE72EB82FA92F60916C029D
:100FA00070916D0280916E0290916F0220915C02AF
:100FB00030915D0240915E0250915F02AE2CFD01C6
:100FC000ED2CFA2C0F2F1E2F0E94520A9B01AC0110
:100FD00060915C0270915D0280915E0290915F026F
:100FE0000E947C0E9B01AC0120935C0230935D0259
:100FF00040935E0250935F026091E1017091E201C3
:101000008091E3019091E40120916802309169029E
:1010100040916A0250916B020E94CC0F29813A8163
:101020004B815C810E94CC0FB62FA72FF82FE92FA0
:1010300060916C0270916D0280916E0290916F02CE
:1010400020916002309161024091620250916302EE
:101050005058CF2EDE2EEB2EFA2E86010E94520A19
:101060009B01AC016091600270916102809162020B
:10107000909163020E947D0E9B01AC01209360025F
:101080003093610240936202509363026091E501E4
:101090007091E6018091E7019091E801209168024A
:1010A0003091690240916A0250916B020E94CC0F0C
:1010B000B62FA72FF82FE92F60916C0270916D0267
:1010C00080916E0290916F022091640230916502CE
:1010D00040916602509167025058CB2EDA2E76016D
:1010E0000F2F1E2F0E94520A9B01AC0160916402D7
:1010F0007091650280916602909167020E947D0E58
:101100009B01AC0120936402309365024093660218
:101110005093670260915C0270915D0280915E0263
:1011200090915F02E0906002F09061020091620293
:101130001091630260906402709065028090660274
:10114000909067029058A20191010E94CC0F5B0120
:101150006C01C801B70129813A814B815C810E94F1
:10116000CC0F9B01AC01C601B5010E947D0EA4010C
:1011700093010E947D0E9B01AC0120936C02309381
:101180006D0240936E0250936F0280916C029091B9
:101190006D02A0916E02B0916F02682F792F8A2F95
:1011A0009B2F0F900F900F900F90CF91DF911F9179
:1011B0000F91FF90EF90DF90CF90BF90AF909F90F6
:1011C0008F907F906F905F904F903F902F900895F9
:1011D0002F923F924F925F926F927F928F929F9247
:1011E000AF92BF92CF92DF92EF92FF920F931F9335
:1011F000DF93CF93CDB7DEB7C456D0400FB6F89487
:10120000DEBF0FBECDBF1C01CB01B22EA32E542ECC
:10121000452E68012114310409F483C0F5019201BF
:101220004F2F5E2F632F722F0E94B00AB62EA72E6B
:10123000582E492E02301105C1F00330110524F457
:101240000130110591F507C003301105C1F00430DC
:10125000110559F51EC0C101F50192014F2F5E2FF6
:10126000632F722F0E944C031DC0C101F501920132
:101270004F2F5E2F632F722F0E94B00413C0C10145
:10128000F50192014F2F5E2F632F722F0E941806D7
:1012900009C0C101F50192014F2F5E2F632F722FFC
:1012A0000E9480077B018C0104C0EE24FF2400EC27
:1012B00011E48090180290901902B40161507040BE
:1012C000882777FD8095982F0E94180F9B01AC010D
:1012D0006E2D7F2D802F912F0E94C80F1816BCF005
:1012E00080901A0290901B02B4016F5F7F4F882795
:1012F00077FD8095982F0E94180F9B01AC016E2DF1
:101300007F2D802F912F0E94E10E87FF0EC0B40128
:10131000882777FD8095982F0E94180F7B018C01FC
:1013200004C0EE24FF2400E013EC92E0C916D104BF
:1013300009F1E3E0CE16D10434F4F1E0CF16D10484
:1013400009F046C009C083E0C816D10411F194E049
:10135000C916D104E9F52CC06E2D7F2D802F912F59
:1013600020E030E040E053E40E947D0E0E94E50E54
:1013700061BF2EC06E2D7F2D802F912F20E030E099
:1013800040E053E40E947D0E0E94E50E7BBD6ABDE5
:101390001FC06E2D7F2D802F912F20E030E040E088
:1013A00053E40E947D0E0E94E50E79BD68BD10C019
:1013B0006E2D7F2D802F912F20E030E040E053E410
:1013C0000E947D0E0E94E50E709379006093780074
:1013D000EDB7FEB772970FB6F894FEBF0FBEEDBF24
:1013E0008DB69EB60894811C911C3E010894611C28
:1013F000711C7282618289EE91E0F4019383828391
:10140000D582C4826E2D7F2D802F912F20E030E079
:1014100040E053E40E947D0E0E94E50EF4017783C4
:101420006683318620868E2D9F2DA02FB12F828737
:101430009387A487B587A5019201852F9A2DA32FA5
:10144000B42D86879787A08BB18B0E9458118DB7DA
:101450009EB742960FB6F8949EBF0FBE8DBFC301D4
:101460000E94C00AA5019201652F7A2D832F942D29
:10147000CC59DF4F0FB6F894DEBF0FBECDBFCF9172
:10148000DF911F910F91FF90EF90DF90CF90BF9071
:10149000AF909F908F907F906F905F904F903F9014
:1014A0002F900895AF92BF92CF92DF92EF92FF926A
:1014B0000F931F93CF93DF935B016C01DE2DCF2D34
:1014C0006091180270911902882777FD8095982FF6
:1014D0000E94180F9B01AC01C601B5010E94C80F04
:1014E00087FD0CC0AE01652F742F802F912F20E057
:1014F00030E0A9010E94C80F87FF1EC060911A0248
:1015000070911B02882777FD8095982F0E94180FF5
:101510009B01AC01C601B5010E94E10E181684F0D2
:10152000AE01652F7C2F802F912F20E030E0A901A4
:101530000E94E10E181624F0D0E0C0E000E010E0B8
:10154000AE01652F7C2F802F912FDF91CF911F91BE
:101550000F91FF90EF90DF90CF90BF90AF900895E4
:101560009C01B901882777FD8095982F0E94180F5C
:10157000089590919B0095FFFCCF80939C00089567
:10158000CF93DF93C82FD92F02C00E94B90A899147
:101590008823D9F7DF91CF9108952F923F924F92F0
:1015A0005F926F927F928F929F92AF92BF92CF92F3
:1015B000DF92EF92FF920F931F93DF93CF93CDB7FC
:1015C000DEB763970FB6F894DEBF0FBECDBF6C01D8
:1015D0007F876E87FC0117821682838181FD04C09C
:1015E0006FC34C855D8504C01E010894211C311C0D
:1015F000F6019381EE85FF8593FD859193FF81919F
:10160000FF87EE87882309F457C3853241F493FDA1
:10161000859193FF8191FF87EE87853259F490E0A1
:10162000B6014A8B5B8B0E942C114A895B895D87CE
:101630004C87D7CF10E0FF2400E00032B0F48B32AB
:1016400069F08C3228F4803251F0833271F40BC08F
:101650008D3239F0803349F401602CC0026004609F
:1016600029C0086027C0006125C007FD2EC0282FB3
:1016700020532A3098F406FF08C0812F880F182FB6
:10168000110F110F180F120F15C08F2D880FF82E84
:10169000FF0CFF0CF80EF20E00620CC08E3221F42B
:1016A00006FD0AC3006406C08C3611F4006802C04F
:1016B000883659F4EE85FF8593FD859193FF8191DE
:1016C000FF87EE87882309F0B8CF982F9554933081
:1016D00018F40061805E06C0982F9556933008F08C
:1016E0009BC10F7E06FF16E06FE3E62EE0228536F3
:1016F00019F4F0E4EF2A07C0863619F420E8E22A4C
:1017000002C011111150E7FE06C01C3340F4912EA7
:10171000939427E00BC0183030F4212F06C027E047
:101720003CE3932E03C027E017E09924CA010496F6
:101730009D878C87FA016081718182819381A101EB
:10174000092D0E942F105C016980262D30E0398B15
:10175000288B60FE03C0388933FF06C0E1FC06C059
:10176000E2FE06C000E205C00DE203C00BE201C0CC
:1017700000E0888999898C7090700097C1F10023EE
:1017800011F084E001C083E08F1558F4F81AE3FCEF
:1017900009C080E290E0B6010E942C11FA94C9F7CA
:1017A00001C0FF24002329F0802F90E0B6010E94A1
:1017B0002C11888983FD03C000E910E00EC00CE8FD
:1017C00010E00BC0A114B10409F0805290E0B60102
:1017D0000E942C110F5F1F4F05C0AE2CBB2490E15F
:1017E000A922BB24F8018491882361F762C2E7FE35
:1017F0000EC09A0CF889F4FF04C08A81813309F481
:101800009A94191454F5292D293050F52DC0E6FC71
:101810002BC0812F90E08A159B054CF03CEFA3165E
:101820003FEFB30624F080E8E82A01C011501123ED
:1018300049F0E2E0F0E0EC0FFD1FE10FF11D8081C7
:101840008033A1F3E7FE10C0912E9394812F90E096
:10185000A816B90644F41A1907C09924939404C031
:1018600098E0992E01C010E0E7FE07C01A141B048F
:101870003CF495012F5F3F4F05C025E030E002C0EA
:1018800021E030E0002311F02F5F3F4F112329F0BA
:10189000812F90E00196280F391F8F2D90E0281797
:1018A000390714F4F21A01C0FF244E2C5524C2014A
:1018B00089709070009749F406C080E290E0B6010C
:1018C0000E942C11FA94FF20C1F7002329F0802FE9
:1018D00090E0B6010E942C1143FC09C006C080E3D1
:1018E00090E0B6010E942C11FA94FF20C1F7E7FEA8
:1018F00046C03501B7FE02C066247724250108944E
:10190000411C511C46185708420C531CF501E9199B
:10191000F1094F01812F90E000271127081B190BB7
:10192000FFEF6F16FFEF7F0629F48EE290E0B6011D
:101930000E942C11A614B70434F0861497041CF4EA
:10194000F201808101C080E3089461087108089465
:10195000411C511C601671062CF090E0B6010E94EB
:101960002C11DECF6A147B0441F49A81963320F463
:10197000953319F4F889F4FF81E390E049C08A8136
:10198000813311F02FEE622290E0B6010E942C11FB
:10199000112389F08EE290E0B6010E942C1102E042
:1019A000F101E00FF11D0F5F808190E0B6010E9410
:1019B0002C111150A9F744FE03C085E490E002C049
:1019C00085E690E0B6010E942C11B7FC05C0A11479
:1019D000B10441F464FE06C0B094A194B108B3947C
:1019E0008DE201C08BE290E0B6010E942C1180E3F1
:1019F00005C08F5FE6EFFFEFAE0EBF1EFAE0AF1639
:101A0000B104BCF790E0B6010E942C11C501C0964C
:101A1000B6010E942C114DC1833631F0833789F015
:101A2000833509F059C022C09A012E5F3F4F3D8790
:101A30002C87FA0180818983310181E0A82EB12CA5
:101A400013C09A012E5F3F4F3D872C87FA016080BB
:101A5000718006FF03C0612F70E002C06FEF7FEF5F
:101A6000C3010E9412115C010F7714C09A012E5F0E
:101A70003F4F3D872C87FA016080718006FF03C0CD
:101A8000612F70E002C06FEF7FEFC3010E9407116A
:101A90005C01006803FD1CC006C080E290E0B60156
:101AA0000E942C11FA948F2D90E0A816B906A8F385
:101AB0000FC0F30107FD859107FF81913F0190E081
:101AC000B6010E942C11F110FA940894A108B108F3
:101AD000A114B10471F7EDC0843611F0893661F5B7
:101AE00007FF0BC09A012C5F3F4F3D872C87FA01FF
:101AF00060817181828193810CC09A012E5F3F4F7A
:101B00003D872C87FA0160817181882777FD809558
:101B1000982F0F7697FF08C09095809570956195E6
:101B20007F4F8F4F9F4F0068A1012AE030E00E9455
:101B3000AB11982E921841C0853721F40F7E2AE010
:101B400030E020C0097F8F36A9F0803720F4883537
:101B500009F0B2C00BC0803721F0883709F0ACC063
:101B600001C0006104FF09C0046007C004FF08C091
:101B7000066006C028E030E005C020E130E002C089
:101B800020E132E007FF0AC0CA0104969D878C87D6
:101B9000FA01608171818281938109C0CA01029634
:101BA0009D878C87FA016081718180E090E0A101BE
:101BB0000E94AB11982E92180F7706FF09C00E7F76
:101BC000911630F404FF06C002FD04C00F7E02C06F
:101BD000E92C01C0E12E802F90E004FF0CC0FE0133
:101BE000E90DF11D2081203311F4097E09C0E39431
:101BF00002FF06C004C086789070009709F0E39455
:101C0000A02EBB2403FD14C000FF0FC0EF1428F466
:101C1000192D1F0D1E19EF2C08C0192D06C080E2CA
:101C200090E0B6010E942C11E394EF14C0F304C0BD
:101C3000EF1410F4FE1801C0FF24A4FE0FC080E3CF
:101C400090E0B6010E942C11A2FE1FC0A1FE03C0AD
:101C500088E590E010C088E790E00DC0C501867867
:101C60009070009791F0A1FC02C080E201C08BE26D
:101C700007FD8DE290E0B6010E942C1106C080E3C2
:101C800090E0B6010E942C1111509116C0F39A9465
:101C9000F101E90DF11D808190E0B6010E942C1147
:101CA0009920A9F706C080E290E0B6010E942C11AD
:101CB000FA94FF20C1F795CCF6012681378102C046
:101CC0002FEF3FEFC90163960FB6F894DEBF0FBE4A
:101CD000CDBFCF91DF911F910F91FF90EF90DF90DB
:101CE000CF90BF90AF909F908F907F906F905F90BC
:101CF0004F903F902F9008955058BB27AA270ED0A1
:101D00000DC1FED030F003D120F031F49F3F11F42B
:101D10001EF4F3C00EF4E095E7FBE9C0E92F0FD104
:101D200080F3BA17620773078407950718F071F4F8
:101D30009EF527C10EF4E0950B2EBA2FA02D0B01B6
:101D4000B90190010C01CA01A0011124FF27591B00
:101D500099F0593F50F4503E68F11A16F040A22F06
:101D6000232F342F4427585FF3CF46953795279577
:101D7000A795F0405395C9F77EF41F16BA0B620B76
:101D8000730B840BBAF09150A1F0FF0FBB1F661FBD
:101D9000771F881FC2F70EC0BA0F621F731F841F00
:101DA00048F4879577956795B795F7959E3F08F026
:101DB000B3CF9395880F08F09927EE0F97958795E5
:101DC000089571D008F481E0089504D06894B111A9
:101DD000D9C00895BCD088F09F5790F0B92F9927AB
:101DE000B751A0F0D1F0660F771F881F991F1AF026
:101DF000BA95C9F712C0B13081F0C3D0B1E00895EF
:101E0000C0C0672F782F8827B85F39F0B93FCCF36F
:101E1000869577956795B395D9F73EF4909580951B
:101E2000709561957F4F8F4F9F4F0895E89409C03B
:101E300097FB3EF490958095709561957F4F8F4FFD
:101E40009F4F9923A9F0F92F96E9BB279395F69513
:101E5000879577956795B795F111F8CFFAF4BB0F91
:101E600011F460FF1BC06F5F7F4F8F4F9F4F16C0F5
:101E7000882311F096E911C0772321F09EE8872F7F
:101E8000762F05C0662371F096E8862F70E060E03B
:101E90002AF09A95660F771F881FDAF7880F9695B4
:101EA000879597F90895990F0008550FAA0BE0E858
:101EB000FEEF16161706E807F907C0F0121613060C
:101EC000E407F50798F0621B730B840B950B39F44C
:101ED0000A2661F0232B242B252B21F408950A26B2
:101EE00009F4A140A6958FEF811D811D089597F9F2
:101EF0009F6780E870E060E008959FEF80EC0895B0
:101F000000240A94161617061806090608950024D8
:101F10000A9412161306140605060895092E039452
:101F2000000C11F4882352F0BB0F40F4BF2B11F4C6
:101F300060FF04C06F5F7F4F8F4F9F4F089557FD25
:101F40009058440F551F59F05F3F71F04795880F27
:101F500097FB991F61F09F3F79F0879508951216BE
:101F600013061406551FF2CF4695F1DF08C016166A
:101F700017061806991FF1CF86957105610508941B
:101F80000895E894BB2766277727CB0197F9089532
:101F90008ADF08F48FEF08950BD0C0CFB1DF28F0AF
:101FA000B6DF18F0952309F0A2CFA7CF1124EACF0E
:101FB000C6DFA0F3959FD1F3950F50E0551F629FA8
:101FC000F001729FBB27F00DB11D639FAA27F00D92
:101FD000B11DAA1F649F6627B00DA11D661F829FB9
:101FE0002227B00DA11D621F739FB00DA11D621F9E
:101FF000839FA00D611D221F749F3327A00D611DBB
:10200000231F849F600D211D822F762F6A2F11249C
:102010009F5750408AF0E1F088234AF0EE0FFF1FEF
:10202000BB1F661F771F881F91505040A9F79E3F26
:10203000510570F05CCFA6CF5F3FECF3983EDCF328
:10204000869577956795B795F795E7959F5FC1F763
:10205000FE2B880F911D9695879597F90895283046
:1020600008F027E03327DA01990F311D87FD9160D1
:1020700000966105710539F432602E5F3D9330E3BF
:102080002A95E1F708959F3F30F08038710561058A
:1020900009F03C5F3C5F3D93913008F08068911DF2
:1020A000DF93CF931F930F93FF92EF92192F987F97
:1020B0009695E92F96959695E90FFF27E251FF4FE8
:1020C00099273327EE24FF24A701E7010590089400
:1020D000079428F4360FE71EF81E491F511D660F9E
:1020E000771F881F991F0694A1F70590079428F47D
:1020F000E70EF81E491F561FC11D770F881F991F35
:10210000661F0694A1F70590079428F4F80E491F5E
:10211000561FC71FD11D880F991F661F771F069472
:10212000A1F70590079420F4490F561FC71FD81F29
:10213000990F661F771F881F0694A9F78491109541
:10214000177041F0D695C79557954795F794E79442
:102150001A95C1F7E4E9F0E068941590159135916E
:102160006591959105907FE27395E118F10A430B13
:10217000560BC90BD009C0F7E10CF11E431F561FC7
:10218000C91FD01D7EF4703311F48A95E6CFE89410
:10219000015030F0080F0AF40027021708F4202F2E
:1021A0002395022F7A3328F079E37D932A95E9F776
:1021B00010C07D932A9589F6069497956795379573
:1021C00017951794E118F10A430B560BC90BD00968
:1021D00098F023957E9173957A3308F070E37C93A1
:1021E0002013B8F77E9170617D9330F0839571E391
:1021F0007D9370E32A95E1F71124EF90FF900F9102
:102200001F91CF91DF91992787FD90950895FC014B
:102210000590615070400110D8F7809590958E0F11
:102220009F1F0895FC016150704001900110D8F784
:10223000809590958E0F9F1F0895DC015D91552329
:1022400031F0FB01019005160110E1F7B9F380951B
:1022500090958A0F9B1F08950F931F93CF93DF9341
:102260008C01EB018B8181FF1BC082FF0DC02E8191
:102270003F818C819D812817390764F4E881F981B9
:102280000193F983E88306C0E885F985802F0995D5
:10229000009731F48E819F8101969F838E8302C0C7
:1022A0000FEF1FEFC801DF91CF911F910F9108959C
:1022B0000F931F93DF93CF93CDB7DEB72E970FB653
:1022C000F894DEBF0FBECDBF0D891E8986E08C83DA
:1022D0001A8309838FEF9FE79E838D839E01275E7C
:1022E0003F4FCE0101966F89788DA9010E94CD0ADA
:1022F000EF81F885E00FF11F10822E960FB6F8944B
:10230000DEBF0FBECDBFCF91DF911F910F9108951A
:10231000DF93CF93CDB7DEB72E970FB6F894DEBF1D
:102320000FBECDBF85E08C838B899C899A8389837E
:102330009E01295E3F4FCE0101966D897E89A901DC
:102340000E94C0132E960FB6F894DEBF0FBECDBF0D
:10235000CF91DF910895FA01AA27283051F1203159
:1023600081F1E8946F936E7F6E5F7F4F8F4F9F4F29
:10237000AF4FB1E03ED0B4E03CD0670F781F891F6B
:102380009A1FA11D680F791F8A1F911DA11D6A0F39
:10239000711D811D911DA11D20D009F468943F91EC
:1023A0002AE0269F11243019305D3193DEF6CF01EB
:1023B0000895462F4770405D4193B3E00FD0C9F7B1
:1023C000F6CF462F4F70405D4A3318F0495D31FD1E
:1023D0004052419302D0A9F7EACFB4E0A695979571
:1023E000879577956795BA95C9F700976105710547
:1023F00008959B01AC010A2E069457954795379591
:102400002795BA95C9F7620F731F841F951FA01DEA
:10241000089520FD09C0FC0123FD05C022FF02C074
:1024200073836283518340830895EF92FF920F93E9
:102430001F9344FD10C046FD10C0DB01FC01AA0F34
:10244000BB1FEE1FFF1F1094D1F76A0F7B1F8E1F5B
:102450009F1F31E003C033E001C034E0660F771FF7
:10246000881F991F3150D1F77B018C01E20EF11CBE
:10247000011D111DA8019701B701CA011F910F91FC
:10248000FF90EF900895EF92FF920F931F93CF93D9
:10249000DF938C01C8010E94FA14EC0197FD08C07B
:1024A0000E94E7140097B1F7CE01B8010E943C15D5
:1024B000CE01DF91CF911F910F91FF90EF90089582
:1024C0008F929F92AF92BF92DF92EF92FF920F9303
:1024D0001F93DF93CF930F92CDB7DEB74C01D62E6B
:1024E0005A01122F0E94FA148B3219F08D3249F4DE
:1024F0001068DA9409F46CC0C4010E94FA1497FDC4
:1025000067C0312F3D7F232F2073F1F48033E1F436
:10251000DA9409F448C0C40139830E94FA1439815D
:1025200097FD41C03260883711F0883559F4306426
:10253000DA94C9F1C40139830E94FA14398197FFF2
:1025400003C031C036FF3061EE24FF248701282FFD
:102550002053283090F034FD09C02A3070F036FF47
:1025600005C02F7D422F4151463030F0B4013983F0
:102570000E943C15398114C02750C801B701432F70
:1025800039830E9415127B018C0139813260DA9403
:1025900069F0C40139830E94FA14398197FFD7CFBB
:1025A00031FD04C015C0EE24FF24870137FF08C0A9
:1025B00010950095F094E094E11CF11C011D111D93
:1025C000C501B801A701232F0E94091281E001C0B3
:1025D00080E00F90CF91DF911F910F91FF90EF90CE
:1025E000DF90BF90AF909F908F9008956F927F92F1
:1025F0008F929F92AF92BF92CF92DF92EF92FF9213
:102600000F931F93DF93CF93CDB7DEB7A1970FB68C
:10261000F894DEBF0FBECDBF6C018A0179019E0127
:102620002F5F3F4F80E2F90111928A95E9F7F60199
:10263000838080E090E0BB24992470E0A1E0B0E0CA
:10264000F70183FCA59083FEA1907F01AA2009F4E5
:102650007FC0FA2DFE3511F4009751F1472F50E05D
:102660004817590744F44A2D4D3551F14D3219F4AC
:10267000992001F103C0992009F4BA2C4A2D4695FE
:1026800046954695F901E40FF11D4A2D47703D012D
:1026900002C0660C771C4A95E2F7908096289082DB
:1026A000AB1459F0AB1410F4A394E8CFAA94E6CF7E
:1026B00071E004C09924939401C099240196C0CF7D
:1026C000992019F08E8180628E83772351F0CE019C
:1026D0008196FE013196208120952193E817F90714
:1026E000D1F7BB24B3944E010894811C911C01C006
:1026F000BB24C60169A30E94FA1469A197FD20C0FA
:10270000282F269526952695F401E20FF11D2081AC
:1027100030E0AC014770507002C0359527954A955E
:10272000E2F720FD04C0B6010E943C1509C0011566
:10273000110519F0F80181938F016150C9F602C0AB
:10274000BB2031F40115110529F0F801108202C0F7
:10275000EE24FF24C701A1960FB6F894DEBF0FBE8A
:10276000CDBFCF91DF911F910F91FF90EF90DF9040
:10277000CF90BF90AF909F908F907F906F90089573
:102780004F925F926F927F929F92AF92BF92CF9241
:10279000DF92EF92FF920F931F93DF93CF930F92ED
:1027A000CDB7DEB77C016B013A01FC0117821682BE
:1027B00000E0E9C0812F90E00E94E714009721F02B
:1027C000C7010E944312DFC0153241F4F601A3FC99
:1027D0003591A3FE31916F01353261F4C7010E943A
:1027E000FA1497FDDCC0181709F4CDC0B7010E9498
:1027F0003C15D7C03A3239F4A3FC3591A3FE319190
:102800006F0111E001C010E099240FC01260692D22
:1028100070E080E090E040E20E941512962EF601F2
:10282000A3FC3591A3FE31916F01232F20532A3051
:1028300068F311FF03C0992019F4B3C099249A9446
:10284000383619F03C3689F409C0F601A3FC3591FD
:10285000A3FE31916F01383641F418601460F6011F
:10286000A3FC3591A3FE31916F01332309F499C084
:102870008EE891E0632F70E039830E94EF14398174
:10288000009709F48EC0812F10FD08C0F30140802D
:10289000518042E050E0640E751E02C0442455246D
:1028A0003E3651F4F7014681578160E070E0C20185
:1028B000212F0E94091267C0333691F481FD02C0B6
:1028C00099249394C7010E94FA1497FD68C041149B
:1028D000510419F0F20181932F019A9499F751C094
:1028E0003B3559F4C701692DA20196010E94F612E9
:1028F0006C01009709F045C03FC0C70139830E94B1
:102900004312398197FD4BC03F3659F1303728F4D7
:10291000343629F1393639F527C0333719F03537D0
:1029200011F51DC0C7010E94FA145C0197FD11C08A
:102930000E94E714009729F0C501B7010E943C15D9
:1029400008C04114510419F0F201A1922F019A9488
:1029500049F741145104A9F0F201108212C010622B
:1029600003C0106101C01064C701692DA201212FAD
:102970000E946012882329F4F7018381807379F41F
:1029800010C010FF0F5FF701A380F601A3FC1591A3
:10299000A3FE11916F01112309F00CCF02C0002397
:1029A00011F010E002C00FEF1FEFC8010F90CF91A0
:1029B000DF911F910F91FF90EF90DF90CF90BF902C
:1029C000AF909F907F906F905F904F90089591117E
:1029D0006EC0803219F089508550D0F70895FC01FF
:1029E0000590061621F00020D9F7C001089531970F
:1029F000CF010895CF93DF93EC013B8130FF36C0C8
:102A000036FF09C03F7B3B838E819F8101969F8368
:102A10008E832A8129C032FF0FC0E881F98180812D
:102A2000992787FD9095009719F430623B831EC06B
:102A30003196F983E88311C0EA85FB85CE010995BB
:102A400097FF0BC02B813FEF8F3F930711F480E17D
:102A500001C080E2822B8B8309C02E813F812F5FD2
:102A60003F4F3F832E83282F30E002C02FEF3FEFF0
:102A7000C901DF91CF910895FB01238120FF13C08D
:102A800026FD11C03FEF8F3F930769F082832064DA
:102A90002F7D238326813781215030403783268341
:102AA000282F30E002C02FEF3FEFC901089599278A
:082AB00088270895F894FFCF78
:102AB8002C303132333435363738390025642C25FB
:102AC800642C25642C25642C25642C25642C256411
:102AD8002C25642C25642C25642C25642C25642C39
:102AE80025642C25642C25642C25642C25642C2530
:102AF800642C25642C2564004D4355206F6E6C6949
:102B08006E650D0A00506F776572204F6E20526512
:102B18007365740D0A0045787465726E616C205295
:102B2800657365740D0A0042726F776E2D6F757448
:102B38002052657365740D0A005754462052657318
:102B480065740D0A004261726B204261726B0D0A56
:102B58000092CEC03A92CEC03A0000F0410000F098
:102B6800410000F0410000F041ACC52737ACC52753
:102B78003717B7D138ACC52737ACC5273717B7D102
:102B880038ACC52737ACC5273717B7D138ACC527F8
:102B980037ACC5273717B7D13846616E5F42616ECB
:102BA8006B2025643A2025642C2054733A20256430
:102BB8002C20753A2025322E35662C20546D3A206B
:0C2BC80025322E35660D0A004C00BAFFC5
:00000001FF
